{
  "contractName": "MultiBtcWrapper",
  "abi": [
    {
      "inputs": [
        {
          "internalType": "address[]",
          "name": "_btcVariants",
          "type": "address[]"
        },
        {
          "internalType": "uint256",
          "name": "_feeInBips",
          "type": "uint256"
        }
      ],
      "stateMutability": "nonpayable",
      "type": "constructor"
    },
    {
      "anonymous": false,
      "inputs": [
        {
          "indexed": true,
          "internalType": "address",
          "name": "owner",
          "type": "address"
        },
        {
          "indexed": true,
          "internalType": "address",
          "name": "spender",
          "type": "address"
        },
        {
          "indexed": false,
          "internalType": "uint256",
          "name": "value",
          "type": "uint256"
        }
      ],
      "name": "Approval",
      "type": "event"
    },
    {
      "anonymous": false,
      "inputs": [
        {
          "indexed": true,
          "internalType": "address",
          "name": "previousOwner",
          "type": "address"
        },
        {
          "indexed": true,
          "internalType": "address",
          "name": "newOwner",
          "type": "address"
        }
      ],
      "name": "OwnershipTransferred",
      "type": "event"
    },
    {
      "anonymous": false,
      "inputs": [
        {
          "indexed": true,
          "internalType": "address",
          "name": "from",
          "type": "address"
        },
        {
          "indexed": true,
          "internalType": "address",
          "name": "to",
          "type": "address"
        },
        {
          "indexed": false,
          "internalType": "uint256",
          "name": "value",
          "type": "uint256"
        }
      ],
      "name": "Transfer",
      "type": "event"
    },
    {
      "inputs": [],
      "name": "FEE_BASE",
      "outputs": [
        {
          "internalType": "uint256",
          "name": "",
          "type": "uint256"
        }
      ],
      "stateMutability": "view",
      "type": "function"
    },
    {
      "inputs": [
        {
          "internalType": "address",
          "name": "owner",
          "type": "address"
        },
        {
          "internalType": "address",
          "name": "spender",
          "type": "address"
        }
      ],
      "name": "allowance",
      "outputs": [
        {
          "internalType": "uint256",
          "name": "",
          "type": "uint256"
        }
      ],
      "stateMutability": "view",
      "type": "function"
    },
    {
      "inputs": [
        {
          "internalType": "address",
          "name": "spender",
          "type": "address"
        },
        {
          "internalType": "uint256",
          "name": "amount",
          "type": "uint256"
        }
      ],
      "name": "approve",
      "outputs": [
        {
          "internalType": "bool",
          "name": "",
          "type": "bool"
        }
      ],
      "stateMutability": "nonpayable",
      "type": "function"
    },
    {
      "inputs": [
        {
          "internalType": "address",
          "name": "account",
          "type": "address"
        }
      ],
      "name": "balanceOf",
      "outputs": [
        {
          "internalType": "uint256",
          "name": "",
          "type": "uint256"
        }
      ],
      "stateMutability": "view",
      "type": "function"
    },
    {
      "inputs": [],
      "name": "decimals",
      "outputs": [
        {
          "internalType": "uint8",
          "name": "",
          "type": "uint8"
        }
      ],
      "stateMutability": "view",
      "type": "function"
    },
    {
      "inputs": [
        {
          "internalType": "address",
          "name": "spender",
          "type": "address"
        },
        {
          "internalType": "uint256",
          "name": "subtractedValue",
          "type": "uint256"
        }
      ],
      "name": "decreaseAllowance",
      "outputs": [
        {
          "internalType": "bool",
          "name": "",
          "type": "bool"
        }
      ],
      "stateMutability": "nonpayable",
      "type": "function"
    },
    {
      "inputs": [],
      "name": "feeCollector",
      "outputs": [
        {
          "internalType": "address",
          "name": "",
          "type": "address"
        }
      ],
      "stateMutability": "view",
      "type": "function"
    },
    {
      "inputs": [],
      "name": "feeInBips",
      "outputs": [
        {
          "internalType": "uint256",
          "name": "",
          "type": "uint256"
        }
      ],
      "stateMutability": "view",
      "type": "function"
    },
    {
      "inputs": [
        {
          "internalType": "address",
          "name": "spender",
          "type": "address"
        },
        {
          "internalType": "uint256",
          "name": "addedValue",
          "type": "uint256"
        }
      ],
      "name": "increaseAllowance",
      "outputs": [
        {
          "internalType": "bool",
          "name": "",
          "type": "bool"
        }
      ],
      "stateMutability": "nonpayable",
      "type": "function"
    },
    {
      "inputs": [],
      "name": "name",
      "outputs": [
        {
          "internalType": "string",
          "name": "",
          "type": "string"
        }
      ],
      "stateMutability": "view",
      "type": "function"
    },
    {
      "inputs": [],
      "name": "owner",
      "outputs": [
        {
          "internalType": "address",
          "name": "",
          "type": "address"
        }
      ],
      "stateMutability": "view",
      "type": "function"
    },
    {
      "inputs": [],
      "name": "pendingFeeCollector",
      "outputs": [
        {
          "internalType": "address",
          "name": "",
          "type": "address"
        }
      ],
      "stateMutability": "view",
      "type": "function"
    },
    {
      "inputs": [],
      "name": "renounceOwnership",
      "outputs": [],
      "stateMutability": "nonpayable",
      "type": "function"
    },
    {
      "inputs": [
        {
          "internalType": "uint256",
          "name": "",
          "type": "uint256"
        }
      ],
      "name": "supportedBtcVariants",
      "outputs": [
        {
          "internalType": "address",
          "name": "",
          "type": "address"
        }
      ],
      "stateMutability": "view",
      "type": "function"
    },
    {
      "inputs": [],
      "name": "symbol",
      "outputs": [
        {
          "internalType": "string",
          "name": "",
          "type": "string"
        }
      ],
      "stateMutability": "view",
      "type": "function"
    },
    {
      "inputs": [],
      "name": "totalSupply",
      "outputs": [
        {
          "internalType": "uint256",
          "name": "",
          "type": "uint256"
        }
      ],
      "stateMutability": "view",
      "type": "function"
    },
    {
      "inputs": [
        {
          "internalType": "address",
          "name": "recipient",
          "type": "address"
        },
        {
          "internalType": "uint256",
          "name": "amount",
          "type": "uint256"
        }
      ],
      "name": "transfer",
      "outputs": [
        {
          "internalType": "bool",
          "name": "",
          "type": "bool"
        }
      ],
      "stateMutability": "nonpayable",
      "type": "function"
    },
    {
      "inputs": [
        {
          "internalType": "address",
          "name": "sender",
          "type": "address"
        },
        {
          "internalType": "address",
          "name": "recipient",
          "type": "address"
        },
        {
          "internalType": "uint256",
          "name": "amount",
          "type": "uint256"
        }
      ],
      "name": "transferFrom",
      "outputs": [
        {
          "internalType": "bool",
          "name": "",
          "type": "bool"
        }
      ],
      "stateMutability": "nonpayable",
      "type": "function"
    },
    {
      "inputs": [
        {
          "internalType": "address",
          "name": "newOwner",
          "type": "address"
        }
      ],
      "name": "transferOwnership",
      "outputs": [],
      "stateMutability": "nonpayable",
      "type": "function"
    },
    {
      "inputs": [
        {
          "internalType": "address",
          "name": "_newFeeCollector",
          "type": "address"
        }
      ],
      "name": "updatePendingFeeCollector",
      "outputs": [],
      "stateMutability": "nonpayable",
      "type": "function"
    },
    {
      "inputs": [],
      "name": "updateFeeCollector",
      "outputs": [],
      "stateMutability": "nonpayable",
      "type": "function"
    },
    {
      "inputs": [
        {
          "internalType": "address",
          "name": "_btcVariant",
          "type": "address"
        },
        {
          "internalType": "uint256",
          "name": "_amount",
          "type": "uint256"
        }
      ],
      "name": "deposit",
      "outputs": [],
      "stateMutability": "nonpayable",
      "type": "function"
    },
    {
      "inputs": [
        {
          "internalType": "address",
          "name": "_btcVariant",
          "type": "address"
        },
        {
          "internalType": "uint256",
          "name": "_amount",
          "type": "uint256"
        }
      ],
      "name": "withdraw",
      "outputs": [
        {
          "internalType": "uint256",
          "name": "",
          "type": "uint256"
        }
      ],
      "stateMutability": "nonpayable",
      "type": "function"
    },
    {
      "inputs": [
        {
          "internalType": "address",
          "name": "_fromBtcVariant",
          "type": "address"
        },
        {
          "internalType": "address",
          "name": "_toBtcVariant",
          "type": "address"
        },
        {
          "internalType": "uint256",
          "name": "_amount",
          "type": "uint256"
        }
      ],
      "name": "swap",
      "outputs": [
        {
          "internalType": "uint256",
          "name": "",
          "type": "uint256"
        }
      ],
      "stateMutability": "nonpayable",
      "type": "function"
    },
    {
      "inputs": [
        {
          "internalType": "uint256",
          "name": "_amount",
          "type": "uint256"
        }
      ],
      "name": "calculateFee",
      "outputs": [
        {
          "internalType": "uint256",
          "name": "",
          "type": "uint256"
        }
      ],
      "stateMutability": "view",
      "type": "function"
    }
  ],
  "bytecode": "0x60806040526127106009553480156200001757600080fd5b5060405162001a7b38038062001a7b833981810160405260408110156200003d57600080fd5b81019080805160405193929190846401000000008211156200005e57600080fd5b9083019060208201858111156200007457600080fd5b82518660208202830111640100000000821117156200009257600080fd5b82525081516020918201928201910280838360005b83811015620000c1578181015183820152602001620000a7565b505050509190910160408181526020938401518183018252600f83526e26bab63a34a13a31abb930b83832b960891b85840190815282518084019093526003808452624d425760e81b9684019690965283519197509295509093620001299350919062000292565b5080516200013f90600490602084019062000292565b50506005805460ff19166012179055506000620001646001600160e01b036200027716565b60058054610100600160a81b0319166101006001600160a01b03841690810291909117909155604051919250906000907f8be0079c531659141344cd1fd0a4f28419497f9722a3daafe3b4186f6b6457e0908290a35060005b82518110156200021557600160076000858481518110620001da57fe5b6020908102919091018101516001600160a01b03168252810191909152604001600020805460ff1916911515919091179055600101620001bd565b5081516200022b90600690602085019062000317565b506200023f6001600160e01b036200027716565b600a80546001600160a01b0319166001600160a01b039290921691909117905560088181556200026f906200027c565b5050620003c1565b335b90565b6005805460ff191660ff92909216919091179055565b828054600181600116156101000203166002900490600052602060002090601f016020900481019282601f10620002d557805160ff191683800117855562000305565b8280016001018555821562000305579182015b8281111562000305578251825591602001919060010190620002e8565b50620003139291506200037d565b5090565b8280548282559060005260206000209081019282156200036f579160200282015b828111156200036f57825182546001600160a01b0319166001600160a01b0390911617825560209092019160019091019062000338565b50620003139291506200039a565b6200027991905b8082111562000313576000815560010162000384565b6200027991905b80821115620003135780546001600160a01b0319168155600101620003a1565b6116aa80620003d16000396000f3fe608060405234801561001057600080fd5b50600436106101735760003560e01c8063715018a6116100de578063a9059cbb11610097578063df791e5011610071578063df791e501461045d578063ecefc70514610493578063f2fde38b1461049b578063f3fef3a3146104c157610173565b8063a9059cbb146103fb578063c415b95c14610427578063dd62ed3e1461042f57610173565b8063715018a61461037d5780637c2d7c63146103855780638da5cb5b146103a257806395d89b41146103aa57806399a5d747146103b2578063a457c2d7146103cf57610173565b806323b872dd1161013057806323b872dd14610285578063313ce567146102bb57806339509351146102d957806347e7ef2414610305578063518b33d61461033157806370a082311461035757610173565b80630565f7c01461017857806306fdde0314610182578063095ea7b3146101ff5780630e716d971461023f57806318160ddd146102595780631db1231b14610261575b600080fd5b6101806104ed565b005b61018a61056d565b6040805160208082528351818301528351919283929083019185019080838360005b838110156101c45781810151838201526020016101ac565b50505050905090810190601f1680156101f15780820380516001836020036101000a031916815260200191505b509250505060405180910390f35b61022b6004803603604081101561021557600080fd5b506001600160a01b038135169060200135610603565b604080519115158252519081900360200190f35b610247610621565b60408051918252519081900360200190f35b610247610627565b61026961062d565b604080516001600160a01b039092168252519081900360200190f35b61022b6004803603606081101561029b57600080fd5b506001600160a01b0381358116916020810135909116906040013561063c565b6102c36106c9565b6040805160ff9092168252519081900360200190f35b61022b600480360360408110156102ef57600080fd5b506001600160a01b0381351690602001356106d2565b6101806004803603604081101561031b57600080fd5b506001600160a01b038135169060200135610726565b6101806004803603602081101561034757600080fd5b50356001600160a01b0316610823565b6102476004803603602081101561036d57600080fd5b50356001600160a01b031661089e565b6101806108b9565b6102696004803603602081101561039b57600080fd5b5035610978565b61026961099f565b61018a6109b3565b610247600480360360208110156103c857600080fd5b5035610a14565b61022b600480360360408110156103e557600080fd5b506001600160a01b038135169060200135610a3d565b61022b6004803603604081101561041157600080fd5b506001600160a01b038135169060200135610aab565b610269610abf565b6102476004803603604081101561044557600080fd5b506001600160a01b0381358116916020013516610ace565b6102476004803603606081101561047357600080fd5b506001600160a01b03813581169160208101359091169060400135610af9565b610247610b17565b610180600480360360208110156104b157600080fd5b50356001600160a01b0316610b1d565b610247600480360360408110156104d757600080fd5b506001600160a01b038135169060200135610c38565b600b546001600160a01b0316610501610dea565b6001600160a01b0316146105465760405162461bcd60e51b81526004018080602001828103825260368152602001806115596036913960400191505060405180910390fd5b600b8054600a80546001600160a01b03199081166001600160a01b03841617909155169055565b60038054604080516020601f60026000196101006001881615020190951694909404938401819004810282018101909252828152606093909290918301828280156105f95780601f106105ce576101008083540402835291602001916105f9565b820191906000526020600020905b8154815290600101906020018083116105dc57829003601f168201915b5050505050905090565b6000610617610610610dea565b8484610dee565b5060015b92915050565b60085481565b60025490565b600b546001600160a01b031681565b6000610649848484610eda565b6106bf84610655610dea565b6106ba8560405180606001604052806028815260200161158f602891396001600160a01b038a16600090815260016020526040812090610693610dea565b6001600160a01b03168152602081019190915260400160002054919063ffffffff61104116565b610dee565b5060019392505050565b60055460ff1690565b60006106176106df610dea565b846106ba85600160006106f0610dea565b6001600160a01b03908116825260208083019390935260409182016000908120918c16815292529020549063ffffffff6110d816565b6001600160a01b03821660009081526007602052604090205460ff16610793576040805162461bcd60e51b815260206004820152601c60248201527f4274632076617269616e74206973206e6f7420737570706f7274656400000000604482015290519081900360640190fd5b604080516323b872dd60e01b81523360048201523060248201526044810183905290516001600160a01b038416916323b872dd9160648083019260209291908290030181600087803b1580156107e857600080fd5b505af11580156107fc573d6000803e3d6000fd5b505050506040513d602081101561081257600080fd5b5061081f90503382611139565b5050565b600a546001600160a01b0316610837610dea565b6001600160a01b03161461087c5760405162461bcd60e51b815260040180806020018281038252602f815260200180611621602f913960400191505060405180910390fd5b600b80546001600160a01b0319166001600160a01b0392909216919091179055565b6001600160a01b031660009081526020819052604090205490565b6108c1610dea565b60055461010090046001600160a01b03908116911614610928576040805162461bcd60e51b815260206004820181905260248201527f4f776e61626c653a2063616c6c6572206973206e6f7420746865206f776e6572604482015290519081900360640190fd5b60055460405160009161010090046001600160a01b0316907f8be0079c531659141344cd1fd0a4f28419497f9722a3daafe3b4186f6b6457e0908390a360058054610100600160a81b0319169055565b6006818154811061098557fe5b6000918252602090912001546001600160a01b0316905081565b60055461010090046001600160a01b031690565b60048054604080516020601f60026000196101006001881615020190951694909404938401819004810282018101909252828152606093909290918301828280156105f95780601f106105ce576101008083540402835291602001916105f9565b600061061b600954610a316008548561123590919063ffffffff16565b9063ffffffff61128e16565b6000610617610a4a610dea565b846106ba856040518060600160405280602581526020016116506025913960016000610a74610dea565b6001600160a01b03908116825260208083019390935260409182016000908120918d1681529252902054919063ffffffff61104116565b6000610617610ab8610dea565b8484610eda565b600a546001600160a01b031681565b6001600160a01b03918216600090815260016020908152604080832093909416825291909152205490565b6000610b058483610726565b610b0f8383610c38565b949350505050565b60095481565b610b25610dea565b60055461010090046001600160a01b03908116911614610b8c576040805162461bcd60e51b815260206004820181905260248201527f4f776e61626c653a2063616c6c6572206973206e6f7420746865206f776e6572604482015290519081900360640190fd5b6001600160a01b038116610bd15760405162461bcd60e51b81526004018080602001828103825260268152602001806114ca6026913960400191505060405180910390fd5b6005546040516001600160a01b0380841692610100900416907f8be0079c531659141344cd1fd0a4f28419497f9722a3daafe3b4186f6b6457e090600090a3600580546001600160a01b0390921661010002610100600160a81b0319909216919091179055565b6001600160a01b03821660009081526007602052604081205460ff16610ca5576040805162461bcd60e51b815260206004820152601c60248201527f4274632076617269616e74206973206e6f7420737570706f7274656400000000604482015290519081900360640190fd5b610caf33836112d0565b6000610cba83610a14565b90506001600160a01b03841663a9059cbb33610cdc868563ffffffff6113d816565b6040518363ffffffff1660e01b815260040180836001600160a01b03166001600160a01b0316815260200182815260200192505050602060405180830381600087803b158015610d2b57600080fd5b505af1158015610d3f573d6000803e3d6000fd5b505050506040513d6020811015610d5557600080fd5b5050600a546040805163a9059cbb60e01b81526001600160a01b0392831660048201526024810184905290519186169163a9059cbb916044808201926020929091908290030181600087803b158015610dad57600080fd5b505af1158015610dc1573d6000803e3d6000fd5b505050506040513d6020811015610dd757600080fd5b50610b0f9050838263ffffffff6113d816565b3390565b6001600160a01b038316610e335760405162461bcd60e51b81526004018080602001828103825260248152602001806115fd6024913960400191505060405180910390fd5b6001600160a01b038216610e785760405162461bcd60e51b81526004018080602001828103825260228152602001806114f06022913960400191505060405180910390fd5b6001600160a01b03808416600081815260016020908152604080832094871680845294825291829020859055815185815291517f8c5be1e5ebec7d5bd14f71427d1e84f3dd0314c0f7b2291e5b200ac8c7c3b9259281900390910190a3505050565b6001600160a01b038316610f1f5760405162461bcd60e51b81526004018080602001828103825260258152602001806115d86025913960400191505060405180910390fd5b6001600160a01b038216610f645760405162461bcd60e51b81526004018080602001828103825260238152602001806114856023913960400191505060405180910390fd5b610f6f83838361141a565b610fb281604051806060016040528060268152602001611512602691396001600160a01b038616600090815260208190526040902054919063ffffffff61104116565b6001600160a01b038085166000908152602081905260408082209390935590841681522054610fe7908263ffffffff6110d816565b6001600160a01b038084166000818152602081815260409182902094909455805185815290519193928716927fddf252ad1be2c89b69c2b068fc378daa952ba7f163c4a11628f55a4df523b3ef92918290030190a3505050565b600081848411156110d05760405162461bcd60e51b81526004018080602001828103825283818151815260200191508051906020019080838360005b8381101561109557818101518382015260200161107d565b50505050905090810190601f1680156110c25780820380516001836020036101000a031916815260200191505b509250505060405180910390fd5b505050900390565b600082820183811015611132576040805162461bcd60e51b815260206004820152601b60248201527f536166654d6174683a206164646974696f6e206f766572666c6f770000000000604482015290519081900360640190fd5b9392505050565b6001600160a01b038216611194576040805162461bcd60e51b815260206004820152601f60248201527f45524332303a206d696e7420746f20746865207a65726f206164647265737300604482015290519081900360640190fd5b6111a06000838361141a565b6002546111b3908263ffffffff6110d816565b6002556001600160a01b0382166000908152602081905260409020546111df908263ffffffff6110d816565b6001600160a01b0383166000818152602081815260408083209490945583518581529351929391927fddf252ad1be2c89b69c2b068fc378daa952ba7f163c4a11628f55a4df523b3ef9281900390910190a35050565b6000826112445750600061061b565b8282028284828161125157fe5b04146111325760405162461bcd60e51b81526004018080602001828103825260218152602001806115386021913960400191505060405180910390fd5b600061113283836040518060400160405280601a81526020017f536166654d6174683a206469766973696f6e206279207a65726f00000000000081525061141f565b6001600160a01b0382166113155760405162461bcd60e51b81526004018080602001828103825260218152602001806115b76021913960400191505060405180910390fd5b6113218260008361141a565b611364816040518060600160405280602281526020016114a8602291396001600160a01b038516600090815260208190526040902054919063ffffffff61104116565b6001600160a01b038316600090815260208190526040902055600254611390908263ffffffff6113d816565b6002556040805182815290516000916001600160a01b038516917fddf252ad1be2c89b69c2b068fc378daa952ba7f163c4a11628f55a4df523b3ef9181900360200190a35050565b600061113283836040518060400160405280601e81526020017f536166654d6174683a207375627472616374696f6e206f766572666c6f770000815250611041565b505050565b6000818361146e5760405162461bcd60e51b815260206004820181815283516024840152835190928392604490910191908501908083836000831561109557818101518382015260200161107d565b50600083858161147a57fe5b049594505050505056fe45524332303a207472616e7366657220746f20746865207a65726f206164647265737345524332303a206275726e20616d6f756e7420657863656564732062616c616e63654f776e61626c653a206e6577206f776e657220697320746865207a65726f206164647265737345524332303a20617070726f766520746f20746865207a65726f206164647265737345524332303a207472616e7366657220616d6f756e7420657863656564732062616c616e6365536166654d6174683a206d756c7469706c69636174696f6e206f766572666c6f774d756c7469427463577261707065723a2063616c6c6572206973206e6f74207468652070656e64696e67466565436f6c6c6563746f7245524332303a207472616e7366657220616d6f756e74206578636565647320616c6c6f77616e636545524332303a206275726e2066726f6d20746865207a65726f206164647265737345524332303a207472616e736665722066726f6d20746865207a65726f206164647265737345524332303a20617070726f76652066726f6d20746865207a65726f20616464726573734d756c7469427463577261707065723a2063616c6c6572206973206e6f742074686520666565436f6c6c6563746f7245524332303a2064656372656173656420616c6c6f77616e63652062656c6f77207a65726fa2646970667358221220bc58e9c949a28eec1654aee3406f952e612e333e5c8fc5c8c2edd40ea0361c5064736f6c63430006040033",
  "source": "pragma solidity ^0.6.4;\n\nimport \"@openzeppelin/contracts/token/ERC20/ERC20.sol\";\nimport \"@openzeppelin/contracts/token/ERC20/SafeERC20.sol\";\nimport \"@openzeppelin/contracts/math/SafeMath.sol\";\nimport \"@openzeppelin/contracts/access/Ownable.sol\";\n\ncontract MultiBtcWrapper is ERC20, Ownable {\n    using SafeMath for uint256;\n    using SafeERC20 for ERC20;\n\n    address[] public supportedBtcVariants;\n    mapping (address=>bool) isSupported;\n\n    uint256 public feeInBips;\n    uint256 public FEE_BASE = 10000;\n\n    address public feeCollector;\n    address public pendingFeeCollector;\n\n    constructor(address[] memory _btcVariants, uint256 _feeInBips) ERC20(\"MultiBtcWrapper\", \"MBW\") public {\n        for (uint i = 0; i < _btcVariants.length; i++) {\n            isSupported[_btcVariants[i]] = true;\n        }\n        supportedBtcVariants = _btcVariants;\n        feeCollector = _msgSender();\n        feeInBips = _feeInBips;\n        _setupDecimals(8);\n    }\n\n    function updatePendingFeeCollector(address _newFeeCollector) public {\n        require(_msgSender() == feeCollector, \"MultiBtcWrapper: caller is not the feeCollector\");\n        pendingFeeCollector = _newFeeCollector;\n    }\n\n    function updateFeeCollector() public {\n        require(_msgSender() == pendingFeeCollector, \"MultiBtcWrapper: caller is not the pendingFeeCollector\");\n        feeCollector = pendingFeeCollector;\n        pendingFeeCollector = address(0x0);\n    }\n\n    function deposit(address _btcVariant, uint256 _amount) public {\n        require(isSupported[_btcVariant], \"Btc variant is not supported\");\n        ERC20(_btcVariant).transferFrom(msg.sender, address(this), _amount);\n        _mint(msg.sender, _amount);\n    }\n\n    function withdraw(address _btcVariant, uint256 _amount) public returns (uint256) {\n        require(isSupported[_btcVariant], \"Btc variant is not supported\");\n        _burn(msg.sender, _amount);\n        uint256 fee = calculateFee(_amount);\n        ERC20(_btcVariant).transfer(msg.sender, _amount.sub(fee));\n        ERC20(_btcVariant).transfer(feeCollector, fee);\n        return _amount.sub(fee);\n    }\n\n    function swap(address _fromBtcVariant, address _toBtcVariant, uint256 _amount) public returns (uint256) {\n        deposit(_fromBtcVariant, _amount);\n        return withdraw(_toBtcVariant, _amount);\n    }\n\n    function calculateFee(uint256 _amount) public view returns (uint256) {\n        return (_amount.mul(feeInBips)).div(FEE_BASE);\n    }\n}\n",
  "sourcePath": "/home/susruth/Projects/Personal/AksaraWorks/multi-btc-wrapper/contracts/MultiBtcWrapper.sol",
  "compiler": {
    "name": "solc",
    "version": "0.6.4+commit.1dca32f3.Emscripten.clang"
  },
  "schemaVersion": "3.0.23",
  "updatedAt": "2020-05-15T12:42:15.873Z",
  "networkType": "ethereum",
  "devdoc": {
    "methods": {
      "allowance(address,address)": {
        "details": "See {IERC20-allowance}."
      },
      "approve(address,uint256)": {
        "details": "See {IERC20-approve}.     * Requirements:     * - `spender` cannot be the zero address."
      },
      "balanceOf(address)": {
        "details": "See {IERC20-balanceOf}."
      },
      "decimals()": {
        "details": "Returns the number of decimals used to get its user representation. For example, if `decimals` equals `2`, a balance of `505` tokens should be displayed to a user as `5,05` (`505 / 10 ** 2`).     * Tokens usually opt for a value of 18, imitating the relationship between Ether and Wei. This is the value {ERC20} uses, unless {_setupDecimals} is called.     * NOTE: This information is only used for _display_ purposes: it in no way affects any of the arithmetic of the contract, including {IERC20-balanceOf} and {IERC20-transfer}."
      },
      "decreaseAllowance(address,uint256)": {
        "details": "Atomically decreases the allowance granted to `spender` by the caller.     * This is an alternative to {approve} that can be used as a mitigation for problems described in {IERC20-approve}.     * Emits an {Approval} event indicating the updated allowance.     * Requirements:     * - `spender` cannot be the zero address. - `spender` must have allowance for the caller of at least `subtractedValue`."
      },
      "increaseAllowance(address,uint256)": {
        "details": "Atomically increases the allowance granted to `spender` by the caller.     * This is an alternative to {approve} that can be used as a mitigation for problems described in {IERC20-approve}.     * Emits an {Approval} event indicating the updated allowance.     * Requirements:     * - `spender` cannot be the zero address."
      },
      "name()": {
        "details": "Returns the name of the token."
      },
      "owner()": {
        "details": "Returns the address of the current owner."
      },
      "renounceOwnership()": {
        "details": "Leaves the contract without owner. It will not be possible to call `onlyOwner` functions anymore. Can only be called by the current owner.     * NOTE: Renouncing ownership will leave the contract without an owner, thereby removing any functionality that is only available to the owner."
      },
      "symbol()": {
        "details": "Returns the symbol of the token, usually a shorter version of the name."
      },
      "totalSupply()": {
        "details": "See {IERC20-totalSupply}."
      },
      "transfer(address,uint256)": {
        "details": "See {IERC20-transfer}.     * Requirements:     * - `recipient` cannot be the zero address. - the caller must have a balance of at least `amount`."
      },
      "transferFrom(address,address,uint256)": {
        "details": "See {IERC20-transferFrom}.     * Emits an {Approval} event indicating the updated allowance. This is not required by the EIP. See the note at the beginning of {ERC20};     * Requirements: - `sender` and `recipient` cannot be the zero address. - `sender` must have a balance of at least `amount`. - the caller must have allowance for ``sender``'s tokens of at least `amount`."
      },
      "transferOwnership(address)": {
        "details": "Transfers ownership of the contract to a new account (`newOwner`). Can only be called by the current owner."
      }
    }
  },
  "userdoc": {
    "methods": {}
  }
}