{
  "contractName": "RenBTCAdapter",
  "abi": [
    {
      "inputs": [
        {
          "internalType": "contract IGatewayRegistry",
          "name": "_registry",
          "type": "address"
        },
        {
          "internalType": "contract MultiBtcWrapper",
          "name": "_btcWrapper",
          "type": "address"
        }
      ],
      "stateMutability": "nonpayable",
      "type": "constructor"
    },
    {
      "inputs": [],
      "name": "btcWrapper",
      "outputs": [
        {
          "internalType": "contract MultiBtcWrapper",
          "name": "",
          "type": "address"
        }
      ],
      "stateMutability": "view",
      "type": "function",
      "constant": true
    },
    {
      "inputs": [],
      "name": "registry",
      "outputs": [
        {
          "internalType": "contract IGatewayRegistry",
          "name": "",
          "type": "address"
        }
      ],
      "stateMutability": "view",
      "type": "function",
      "constant": true
    },
    {
      "inputs": [
        {
          "internalType": "bytes",
          "name": "_msg",
          "type": "bytes"
        },
        {
          "internalType": "uint256",
          "name": "_amount",
          "type": "uint256"
        },
        {
          "internalType": "bytes32",
          "name": "_nHash",
          "type": "bytes32"
        },
        {
          "internalType": "bytes",
          "name": "_sig",
          "type": "bytes"
        }
      ],
      "name": "deposit",
      "outputs": [],
      "stateMutability": "nonpayable",
      "type": "function"
    },
    {
      "inputs": [
        {
          "internalType": "bytes",
          "name": "_to",
          "type": "bytes"
        },
        {
          "internalType": "uint256",
          "name": "_amount",
          "type": "uint256"
        }
      ],
      "name": "withdraw",
      "outputs": [],
      "stateMutability": "nonpayable",
      "type": "function"
    },
    {
      "inputs": [
        {
          "internalType": "address",
          "name": "_fromBtcVariant",
          "type": "address"
        },
        {
          "internalType": "bytes",
          "name": "_to",
          "type": "bytes"
        },
        {
          "internalType": "uint256",
          "name": "_amount",
          "type": "uint256"
        }
      ],
      "name": "swapOut",
      "outputs": [],
      "stateMutability": "nonpayable",
      "type": "function"
    },
    {
      "inputs": [
        {
          "internalType": "bytes",
          "name": "_msg",
          "type": "bytes"
        },
        {
          "internalType": "uint256",
          "name": "_amount",
          "type": "uint256"
        },
        {
          "internalType": "bytes32",
          "name": "_nHash",
          "type": "bytes32"
        },
        {
          "internalType": "bytes",
          "name": "_sig",
          "type": "bytes"
        }
      ],
      "name": "swapIn",
      "outputs": [],
      "stateMutability": "nonpayable",
      "type": "function"
    }
  ],
  "bytecode": "0x608060405234801561001057600080fd5b506040516111a03803806111a08339818101604052604081101561003357600080fd5b508051602090910151600080546001600160a01b039384166001600160a01b031991821617909155600180549390921692169190911790556111268061007a6000396000f3fe608060405234801561001057600080fd5b50600436106100625760003560e01c80632012aca71461006757806322a1f539146101335780634120dfc714610157578063447b9fbf146102215780637b1039991461029f578063c7012626146102a7575b600080fd5b6101316004803603608081101561007d57600080fd5b810190602081018135600160201b81111561009757600080fd5b8201836020820111156100a957600080fd5b803590602001918460018302840111600160201b831117156100ca57600080fd5b919390928235926020810135929190606081019060400135600160201b8111156100f357600080fd5b82018360208201111561010557600080fd5b803590602001918460018302840111600160201b8311171561012657600080fd5b509092509050610315565b005b61013b6106b8565b604080516001600160a01b039092168252519081900360200190f35b6101316004803603608081101561016d57600080fd5b810190602081018135600160201b81111561018757600080fd5b82018360208201111561019957600080fd5b803590602001918460018302840111600160201b831117156101ba57600080fd5b919390928235926020810135929190606081019060400135600160201b8111156101e357600080fd5b8201836020820111156101f557600080fd5b803590602001918460018302840111600160201b8311171561021657600080fd5b5090925090506106c7565b6101316004803603606081101561023757600080fd5b6001600160a01b038235169190810190604081016020820135600160201b81111561026157600080fd5b82018360208201111561027357600080fd5b803590602001918460018302840111600160201b8311171561029457600080fd5b919350915035610ab0565b61013b610e0c565b610131600480360360408110156102bd57600080fd5b810190602081018135600160201b8111156102d757600080fd5b8201836020820111156102e957600080fd5b803590602001918460018302840111600160201b8311171561030a57600080fd5b919350915035610e1b565b6000868660405160200180806020018281038252848482818152602001925080828437600081840181905260408051601f19601f9094018416909501858103909301855282815284516020958601208254633249b58f60e11b855260048501879052600360248601526242544360e81b60448601529151909a509198506001600160a01b031696506364936b1e95506064808301955090925090829003018186803b1580156103c357600080fd5b505afa1580156103d7573d6000803e3d6000fd5b505050506040513d60208110156103ed57600080fd5b505160405163159ab14d60e01b8152600481018481526024820189905260448201889052608060648301908152608483018790526001600160a01b039093169263159ab14d9286928b928b928b928b92909160a401848480828437600081840152601f19601f8201169050808301925050509650505050505050602060405180830381600087803b15801561048157600080fd5b505af1158015610495573d6000803e3d6000fd5b505050506040513d60208110156104ab57600080fd5b5051600080546040805163efa74f1f60e01b8152602060048201819052600360248301526242544360e81b6044830152915194955092936001600160a01b039092169263efa74f1f9260648083019392829003018186803b15801561050f57600080fd5b505afa158015610523573d6000803e3d6000fd5b505050506040513d602081101561053957600080fd5b50516001546040805163095ea7b360e01b81526001600160a01b0392831660048201526024810186905290519293509083169163095ea7b3916044808201926020929091908290030181600087803b15801561059457600080fd5b505af11580156105a8573d6000803e3d6000fd5b505050506040513d60208110156105be57600080fd5b5050600154604080516311f9fbc960e21b81526001600160a01b03848116600483015260248201869052915191909216916347e7ef2491604480830192600092919082900301818387803b15801561061557600080fd5b505af1158015610629573d6000803e3d6000fd5b50506001546040805163a9059cbb60e01b81523360048201526024810187905290516001600160a01b03909216935063a9059cbb92506044808201926020929091908290030181600087803b15801561068157600080fd5b505af1158015610695573d6000803e3d6000fd5b505050506040513d60208110156106ab57600080fd5b5050505050505050505050565b6001546001600160a01b031681565b6000868660208110156106d957600080fd5b5060408051602080820190815291810189905291356001600160a01b03169250600091899189918190606001848480828437600081840181905260408051601f19601f9094018416909501858103909301855282815284516020958601208254633249b58f60e11b855260048501879052600360248601526242544360e81b60448601529151909a509198506001600160a01b031696506364936b1e95506064808301955090925090829003018186803b15801561079657600080fd5b505afa1580156107aa573d6000803e3d6000fd5b505050506040513d60208110156107c057600080fd5b505160405163159ab14d60e01b815260048101848152602482018a905260448201899052608060648301908152608483018890526001600160a01b039093169263159ab14d9286928c928c928c928c92909160a401848480828437600081840152601f19601f8201169050808301925050509650505050505050602060405180830381600087803b15801561085457600080fd5b505af1158015610868573d6000803e3d6000fd5b505050506040513d602081101561087e57600080fd5b5051600080546040805163efa74f1f60e01b8152602060048201819052600360248301526242544360e81b6044830152915194955092936001600160a01b039092169263efa74f1f9260648083019392829003018186803b1580156108e257600080fd5b505afa1580156108f6573d6000803e3d6000fd5b505050506040513d602081101561090c57600080fd5b50516001546040805163095ea7b360e01b81526001600160a01b0392831660048201526024810186905290519293509083169163095ea7b3916044808201926020929091908290030181600087803b15801561096757600080fd5b505af115801561097b573d6000803e3d6000fd5b505050506040513d602081101561099157600080fd5b505060015460408051630df791e560e41b81526001600160a01b0384811660048301528781166024830152604482018690529151600093929092169163df791e509160648082019260209290919082900301818787803b1580156109f457600080fd5b505af1158015610a08573d6000803e3d6000fd5b505050506040513d6020811015610a1e57600080fd5b50516001546040805163a9059cbb60e01b81523360048201526024810184905290519293506001600160a01b039091169163a9059cbb916044808201926020929091908290030181600087803b158015610a7757600080fd5b505af1158015610a8b573d6000803e3d6000fd5b505050506040513d6020811015610aa157600080fd5b50505050505050505050505050565b600080546040805163efa74f1f60e01b8152602060048201819052600360248301526242544360e81b604483015291516001600160a01b039093169263efa74f1f92606480840193919291829003018186803b158015610b0f57600080fd5b505afa158015610b23573d6000803e3d6000fd5b505050506040513d6020811015610b3957600080fd5b5051604080516323b872dd60e01b81523360048201523060248201526044810185905290519192506001600160a01b038716916323b872dd916064808201926020929091908290030181600087803b158015610b9457600080fd5b505af1158015610ba8573d6000803e3d6000fd5b505050506040513d6020811015610bbe57600080fd5b50506001546040805163095ea7b360e01b81526001600160a01b0392831660048201526024810185905290519187169163095ea7b3916044808201926020929091908290030181600087803b158015610c1657600080fd5b505af1158015610c2a573d6000803e3d6000fd5b505050506040513d6020811015610c4057600080fd5b505060015460408051630df791e560e41b81526001600160a01b0388811660048301528481166024830152604482018690529151600093929092169163df791e509160648082019260209290919082900301818787803b158015610ca357600080fd5b505af1158015610cb7573d6000803e3d6000fd5b505050506040513d6020811015610ccd57600080fd5b505160005460408051633249b58f60e11b8152602060048201819052600360248301526242544360e81b604483015291519394506001600160a01b03909216926364936b1e926064808201939291829003018186803b158015610d2f57600080fd5b505afa158015610d43573d6000803e3d6000fd5b505050506040513d6020811015610d5957600080fd5b5051604080516338463cff60e01b81526024810184905260048101918252604481018790526001600160a01b03909216916338463cff918891889186918190606401858580828437600081840152601f19601f820116905080830192505050945050505050602060405180830381600087803b158015610dd857600080fd5b505af1158015610dec573d6000803e3d6000fd5b505050506040513d6020811015610e0257600080fd5b5050505050505050565b6000546001600160a01b031681565b600080546040805163efa74f1f60e01b8152602060048201819052600360248301526242544360e81b604483015291516001600160a01b039093169263efa74f1f92606480840193919291829003018186803b158015610e7a57600080fd5b505afa158015610e8e573d6000803e3d6000fd5b505050506040513d6020811015610ea457600080fd5b5051600154604080516323b872dd60e01b81523360048201523060248201526044810186905290519293506001600160a01b03909116916323b872dd916064808201926020929091908290030181600087803b158015610f0357600080fd5b505af1158015610f17573d6000803e3d6000fd5b505050506040513d6020811015610f2d57600080fd5b50506001546040805163f3fef3a360e01b81526001600160a01b038481166004830152602482018690529151600093929092169163f3fef3a39160448082019260209290919082900301818787803b158015610f8857600080fd5b505af1158015610f9c573d6000803e3d6000fd5b505050506040513d6020811015610fb257600080fd5b505160005460408051633249b58f60e11b8152602060048201819052600360248301526242544360e81b604483015291519394506001600160a01b03909216926364936b1e926064808201939291829003018186803b15801561101457600080fd5b505afa158015611028573d6000803e3d6000fd5b505050506040513d602081101561103e57600080fd5b5051604080516338463cff60e01b81526024810184905260048101918252604481018790526001600160a01b03909216916338463cff918891889186918190606401858580828437600081840152601f19601f820116905080830192505050945050505050602060405180830381600087803b1580156110bd57600080fd5b505af11580156110d1573d6000803e3d6000fd5b505050506040513d60208110156110e757600080fd5b5050505050505056fea26469706673582212200e46ab59b8d092b8610a5583dfcbde3cf361c92785dd46badb52ab6b51e185f864736f6c63430006040033",
  "source": "pragma solidity ^0.6.4;\n\nimport \"./MultiBtcWrapper.sol\";\n\ninterface IGateway {\n    function mint(bytes32 _pHash, uint256 _amount, bytes32 _nHash, bytes calldata _sig) external returns (uint256);\n    function burn(bytes calldata _to, uint256 _amount) external returns (uint256);\n}\n\ninterface IGatewayRegistry {\n    function getGatewayBySymbol(string calldata _tokenSymbol) external view returns (IGateway);\n    function getTokenBySymbol(string calldata _tokenSymbol) external view returns (IERC20);\n}\n\ncontract RenBTCAdapter {\n    IGatewayRegistry public registry;\n    MultiBtcWrapper public btcWrapper;\n\n    constructor(IGatewayRegistry _registry, MultiBtcWrapper _btcWrapper) public {\n        registry = _registry;\n        btcWrapper = _btcWrapper;\n    }\n\n    function deposit(\n        // Parameters from users\n        bytes calldata _msg,\n        // Parameters from Darknodes\n        uint256        _amount,\n        bytes32        _nHash,\n        bytes calldata _sig\n    ) external {\n        bytes32 pHash = keccak256(abi.encode(_msg));\n        uint256 mintedAmount = registry.getGatewayBySymbol(\"BTC\").mint(pHash, _amount, _nHash, _sig);\n        IERC20 renBTC = registry.getTokenBySymbol(\"BTC\");\n        renBTC.approve(address(btcWrapper), mintedAmount);\n        btcWrapper.deposit(address(renBTC), mintedAmount);\n        btcWrapper.transfer(msg.sender, mintedAmount);\n    }\n\n    function withdraw(bytes calldata _to, uint256 _amount) external {\n        IERC20 renBTC = registry.getTokenBySymbol(\"BTC\");\n        btcWrapper.transferFrom(msg.sender, address(this), _amount);\n        uint256 withdrewAmount = btcWrapper.withdraw(address(renBTC), _amount);\n        registry.getGatewayBySymbol(\"BTC\").burn(_to, withdrewAmount);\n    }\n\n    function swapOut(address _fromBtcVariant, bytes calldata _to, uint256 _amount) external {\n        IERC20 renBTC = registry.getTokenBySymbol(\"BTC\");\n        IERC20(_fromBtcVariant).transferFrom(msg.sender, address(this), _amount);\n        IERC20(_fromBtcVariant).approve(address(btcWrapper), _amount);\n        uint256 withdrewAmount = btcWrapper.swap(_fromBtcVariant, address(renBTC), _amount);\n        registry.getGatewayBySymbol(\"BTC\").burn(_to, withdrewAmount);\n    }\n\n    function swapIn(\n        // Parameters from users\n        bytes calldata _msg,\n        // Parameters from Darknodes\n        uint256        _amount,\n        bytes32        _nHash,\n        bytes calldata _sig\n    ) external {\n        address btcVariant;\n        (btcVariant) = abi.decode(_msg, (address));\n        bytes32 pHash = keccak256(abi.encode(_msg));\n        uint256 mintedAmount = registry.getGatewayBySymbol(\"BTC\").mint(pHash, _amount, _nHash, _sig);\n        IERC20 renBTC = registry.getTokenBySymbol(\"BTC\");\n        renBTC.approve(address(btcWrapper), mintedAmount);\n        uint256 withdrewAmount = btcWrapper.swap(address(renBTC), btcVariant, mintedAmount);\n        IERC20(btcWrapper).transfer(msg.sender, withdrewAmount);\n    }\n}",
  "sourcePath": "/home/susruth/Projects/Personal/AksaraWorks/multi-btc-wrapper/contracts/RenBTCAdapter.sol",
  "compiler": {
    "name": "solc",
    "version": "0.6.4+commit.1dca32f3.Emscripten.clang"
  },
  "schemaVersion": "3.0.23",
  "updatedAt": "2020-05-15T12:42:15.879Z",
  "networkType": "ethereum",
  "devdoc": {
    "methods": {}
  },
  "userdoc": {
    "methods": {}
  }
}